:020000040000FA
:100000000A128A11DC2F8316031305140730831696
:100010000317880083160313851405159F171F12F5
:100020009F12831203139E01831603139E0108007F
:1000300000307005F80000307105F900803072055D
:10004000FA007F307305FB007B087A04790478049A
:10005000031D2B282C2834280030F3000030F20038
:100060000030F1000030F00000307405F80000307E
:100070007505F90080307605FA007F307705FB00C2
:100080007B087A0479047804031D472848285028FF
:100090000030F7000030F6000030F5000030F400CA
:1000A000F31F5328542878280030F8000030F90056
:1000B0000030FA008030FB007008F8027108031C61
:1000C000710F63286428F9027208031C720F6928F3
:1000D0006A28FA027308031C730F6F287028FB024A
:1000E0007B08F3007A08F2007908F1007808F00044
:1000F000F71F7B287C28A0280030F8000030F9008A
:100100000030FA008030FB007408F8027508031C08
:10011000750F8B288C28F9027608031C760F91281E
:100120009228FA027708031C770F97289828FB0279
:100130007B08F7007A08F6007908F5007808F400E3
:100140008030F3068030F70677087302031DB2286B
:1001500076087202031DB22875087102031DB228C9
:10016000740870020318B528B628B8280310B928F7
:10017000031408008312031328088039AD002D08EA
:10018000B2002808AD002D07AE002E08B800A71F4A
:10019000CA28CB28CC28381438080319D028D128ED
:1001A000E028380A031DD528D628DE280030A8000C
:1001B0000030A7000030A6000030A500A717E828EF
:1001C0000030A8000030A7000030A6000030A500D5
:1001D0002C088039AD002D08B2062C08AD002D0783
:1001E000AE002E08B700AB1FF628F728F828371402
:1001F00037080319FC28FD280C29370A031D01299B
:1002000002290A290030AC000030AB000030AA00FF
:100210000030A900AB1714290030AC000030AB004F
:100220000030AA000030A90037080319182919293D
:100230001E293808031D1D291E2927290030A80062
:100240000030A7000030A6000030A5001A2C2508B9
:10025000AD002D08F0002B080A168A1195230A120A
:100260008A11710883120313BE007008BD003D0897
:10027000AD00AE01AF01B0013008B6002F08B500E7
:100280002E08B4002D08B3003E08AD00AE01AF014A
:10029000B0013008BC002F08BB002E08BA002D08A2
:1002A000B9002608AD002D08F0002A080A168A11A8
:1002B00095230A128A11710883120313BE00700875
:1002C000BD003D08AD00AE01AF01B0012D08B30780
:1002D0002E0803110318013E03196F29B4072F08D4
:1002E00003110318013E03197629B50730080311DD
:1002F0000318013E03197D29B6073E08AD00AE0183
:10030000AF01B0012D08B9072E0803110318013EF3
:1003100003198B29BA072F0803110318013E03198B
:100320009229BB07300803110318013E03199929CC
:10033000BC072708AD002D08F00029080A168A110D
:1003400095230A128A11710883120313BE007008E4
:10035000BD003D08AD00AE01AF01B0012D08B307EF
:100360002E0803110318013E0319B729B4072F08FB
:1003700003110318013E0319BE29B5073008031104
:100380000318013E0319C529B6073E08AD00AE01AA
:10039000AF01B0012D08B9072E0803110318013E63
:1003A0000319D329BA072F0803110318013E0319B3
:1003B000DA29BB07300803110318013E0319E129AC
:1003C000BC070830AD000310B30DB40DB50DB60D6C
:1003D000AD0BE3292608AD002D08F00029080A1608
:1003E0008A1195230A128A11710883120313BE0021
:1003F0007008BD003D08AD003E08AE00AF01B00181
:100400002D08B3072E0803110318013E0319092A0A
:10041000B4072F0803110318013E0319102AB5076A
:10042000300803110318013E0319172AB6072508DF
:10043000AD002D08F0002A080A168A1195230A1229
:100440008A11710883120313BE007008BD003D08B5
:10045000AD003E08AE00AF01B0012D08B3072E0875
:1004600003110318013E0319362AB4072F0803119C
:100470000318013E03193D2AB5073008031103187C
:10048000013E0319442AB6070830AD000310B30D2E
:10049000B40DB50DB60DAD0B462A2508AD002D08DF
:1004A000F00029080A168A1195230A128A11710888
:1004B00083120313BE007008BD003D08AD003E0866
:1004C000AE00AF01B0012D08B3072E0803110318C9
:1004D000013E03196C2AB4072F0803110318013ECB
:1004E0000319732AB507300803110318013E0319D5
:1004F0007A2AB6072608AD002D08F0002B080A1648
:100500008A1195230A128A11710883120313BE00FF
:100510007008BD003D08AD003E08AE00AF01B0015F
:100520002D08B9072E0803110318013E0319992A53
:10053000BA072F0803110318013E0319A02ABB07AD
:10054000300803110318013E0319A72ABC07270826
:10055000AD002D08F0002A080A168A1195230A1208
:100560008A11710883120313BE007008BD003D0894
:10057000AD003E08AE00AF01B0012D08B9072E084E
:1005800003110318013E0319C62ABA072F080311E5
:100590000318013E0319CD2ABB07300803110318C5
:1005A000013E0319D42ABC072708AD002D08F0002E
:1005B0002B080A168A1195230A128A1171088312D0
:1005C0000313BE007008BD003D08AD003E08AE003C
:1005D000AF01B00108300310AD0DAE0DAF0DB00D81
:1005E000FF3E031DEB2A2D08B9072E08031103183F
:1005F000013E0319FC2ABA072F0803110318013E14
:100600000319032BBB07300803110318013E03191C
:100610000A2BBC073308AD003408AE003508AF0024
:100620003608B00018300310B00CAF0CAE0CAD0C97
:10063000FF3E031D132B2D08B9072E0803110318C5
:10064000013E0319242BBA072F0803110318013E9A
:1006500003192B2BBB07300803110318013E0319A4
:10066000322BBC070830AD000310B30DB40DB50D2F
:10067000B60DAD0B342B38083707AD00AE01AE0D0B
:100680002D08823EBD002E080318013EFF3EBE002D
:10069000662B0130AD000310B90DBA0DBB0DBC0DBA
:1006A000AD0B4B2BB61F552B562B572B3914013046
:1006B000AD000310B30DB40DB50DB60DAD0B592B38
:1006C000FF30BD070318BE0AFF30BE07BB1F692BF2
:1006D0006A2B492BB701B61F6E2B6F2B8B2BFF306C
:1006E0003305AD00FF303405AE00FF303505AF00F7
:1006F0007F303605B00030082F042E042D04031976
:10070000822B832B862BB701B70A8B2B391C892BA5
:100710008A2B8B2B832B370803198F2B902BC12B04
:100720000130B907003003180130BA070030031850
:100730000130BB07003003180130BC073C1CA12B63
:10074000A22BC12B3908AD003A08AE003B08AF0020
:100750003C08B0000130B100300DB00CAF0CAE0C55
:10076000AD0CB10BAC2B3008BC002F08BB002E0821
:10077000BA002D08B9000130BD070318BE0A0030C9
:10078000BE073E08803AFF0080307F02031DCA2B5F
:10079000FF303D02031CCD2BCE2BD92B7F30831293
:1007A0000313BC008030BB000030BA000030B90039
:1007B0000E2C831203133E08803AFF0080307F0224
:1007C000031DE42B01303D020318E72BE82BF42B2B
:1007D000003083120313BC000030BB000030BA00AD
:1007E0000030B900B2010E2C831203133D08AD0096
:1007F0002D08B800FF30B905FF30BA057F30BB05C2
:100800000030BC05381C052C062C072CBB173808FB
:10081000AD0003102D0CAE002E08BC003208AD0058
:100820002D08BC043C08A8003B08A7003A08A60015
:100830003908A50008007130831603138F00890161
:100840000730831603178800003083120313A900B2
:100850000030A8002530A7008030A6000A168A11B3
:10086000FD240A128A110A168A11BC230A128A115F
:100870000A128A1103200A128A11333083160313D5
:10088000B800BB30B700DF30B600B60B452CB70B55
:10089000452CB80B452CC0300A168A111A240A12AE
:1008A0008A110030F000F1000A168A11C0240A12E1
:1008B0008A11FF3083160313B6000330B7007008A7
:1008C0003602D7007108031C710A3702D800D9011B
:1008D000D81BD9035908DA00063083160313B80071
:1008E0001330B700AD30B600B60B742CB70B742CB8
:1008F000B80B742C0130F0000030F1000A168A1198
:10090000C0240A128A11700883160313D3007108D9
:10091000D4000030D41BFF30D500D600063083163B
:100920000313B8001330B700AD30B600B60B962CE9
:10093000B70B962CB80B962C0230F0000030F1006B
:100940000A168A11C0240A128A117008831603132A
:10095000CD007108CE000030CE1BFF30CF00D0009C
:10096000063083160313B8001330B700AD30B6005D
:10097000B60BB82CB70BB82CB80BB82CC1308312FF
:100980000313DC002030DB000030DA000030D90037
:10099000831603135A08F3005908F2005808F100AF
:1009A0005708F00001300A168A1146270A128A11E8
:1009B000730883120313C2007208C1007108C000DB
:1009C0007008BF004630C6002030C5002830C40083
:1009D0000030C3000A128A159B230A128A1183125F
:1009E00003134208E0004108DF004008DE003F0832
:1009F000DD000A128A1578250A128A118312031360
:100A00005C0883160313C000831203135B0883166C
:100A10000313BF00831203135A0883160313BE0087
:100A200083120313590883160313BD004130831248
:100A30000313C2002030C1000030C0000030BF00EE
:100A400083160313400883120313C600831603138F
:100A50003F0883120313C500831603133E08831255
:100A60000313C400831603133D0883120313C3004A
:100A70000A128A159B230A128A1183120313420851
:100A800083160313B3008312031341088316031361
:100A9000B20083120313400883160313B1008312BC
:100AA00003133F0883160313B0000A128A154F225E
:100AB0000A128A11831603133308C4003208C300D4
:100AC0003108C2003008C100413083120313DC003A
:100AD0005B30DB009830DA00EA30D900831603136C
:100AE000440883120313E0008316031343088312A0
:100AF0000313DF0083160313420883120313DE007F
:100B000083160313410883120313DD000A128A15AA
:100B100078250A128A11831203135C08C2005B084D
:100B2000C1005A08C0005908BF004530C6007F30D8
:100B3000C500A030C4000030C3000A128A159B23F0
:100B40000A128A1183120313420883160313C80082
:100B500083120313410883160313C7008312031380
:100B6000400883160313C600831203133F0883163D
:100B70000313C500C33083120313DC008830DB008D
:100B80008030DA000030D90083160313480883123E
:100B90000313E00083160313470883120313DF00D7
:100BA00083160313460883120313DE008316031310
:100BB000450883120313DD000A128A1578250A12EC
:100BC0008A11831203135C0883160313CC0083126B
:100BD00003135B0883160313CB00831203135A0815
:100BE00083160313CA0083120313590883160313D1
:100BF000C900433083120313DC002B30DB00663066
:100C0000DA006630D900BE30A8002E30A7001430BC
:100C1000A6007B30A500831603135608F300550881
:100C2000F2005408F1005308F00001300A168A114E
:100C300046270A128A11730883120313AC00720844
:100C4000AB007108AA007008A9000A128A11BA2024
:100C50000A128A11831203132808E0002708DF0014
:100C60002608DE002508DD000A128A1578250A12FA
:100C70008A11831203135C0883160313BC008312CA
:100C800003135B0883160313BB00831203135A0874
:100C900083160313BA008312031359088316031330
:100CA000B9004B30B6003608F000A0300A168A11A1
:100CB0004D230A128A112F3083160313B60036080B
:100CC00083120313A000831603134C08F3004B0890
:100CD000F2004A08F1004908F0000A168A112F268E
:100CE0000A128A11710883120313A2007008A1006E
:100CF000DF30A3000030A400DF300A128A154C2137
:100D00000A128A11DF30F0000030F100A0300A161C
:100D10008A11E6230A128A11063083160313B800DB
:100D20001330B700AD30B600B60B942EB70B942E2F
:100D3000B80B942E4330F0008030F100A0300A163A
:100D40008A11E6230A128A11373083160313B6007C
:100D5000360883120313A000831603133C08F30024
:100D60003B08F2003A08F1003908F0000A168A112F
:100D70002F260A128A11710883120313A200700829
:100D8000A1002530A3000030A400DB300A128A1530
:100D90004C210A128A11DB30F0000030F100A03043
:100DA0000A168A11E6230A128A11063083160313E3
:100DB000B8001330B700AD30B600B60BDD2EB70B60
:100DC000DD2EB80BDD2EF501A03083160313B6001F
:100DD0003608F60000300A168A116E230A128A11AC
:100DE000473083160313B6003608F00090300A1619
:100DF0008A114D230A128A113E3083160313B6005E
:100E0000360883120313A000831603134E088312BF
:100E10000313A200831603134D0883120313A100CA
:100E2000E3300A128A154C210A128A11E330F000CD
:100E30000030F10090300A168A11E6230A128A1156
:100E4000063083160313B8001330B700AD30B60078
:100E5000B60B282FB70B282FB80B282FF501903091
:100E600083160313B6003608F60002300A168A11FC
:100E70006E230A128A11DF300A168A1136230A12EB
:100E80008A114130F300E030F2000030F100003010
:100E9000F000831603134C08F7004B08F6004A08CD
:100EA000F5004908F4000A128A1118200A128A1162
:100EB00003185B2F5C2F622F831203130914891010
:100EC0000911C42F4130F300E030F2000030F1008E
:100ED0000030F000831603134C08F7004B08F600AF
:100EE0004A08F5004908F4000A128A1118200A126B
:100EF0008A11031C7C2F7D2F9E2F831603134C0811
:100F0000F3004B08F2004A08F1004908F0004130B4
:100F1000F7002030F6000030F5000030F4000A122F
:100F20008A1118200A128A11031C972F982F9E2FBE
:100F300083120313091089140911C42F8316031394
:100F40004C08F3004B08F2004A08F1004908F00091
:100F50004130F7002030F6000030F5000030F4009A
:100F60000A128A1118200A128A110318B82FB92FF1
:100F7000BF2F83120313091089100915C42F831280
:100F80000313091089100911153083160313B800D3
:100F90004B30B700BD30B600B60BCC2FB70BCC2F03
:100FA000B80BCC2FD32F0A168A11FF220A128A11EE
:100FB000512C0A128A1100288317C030FD0013300B
:100FC000FE000F30FF00B03084000A128A15632043
:100FD0000A128A1190308400B0300A168A11ED226C
:100FE0000A128A118313CD308400E4300A168A1164
:100FF000ED220A128A11EE0183010A128A111B2CBA
:10100000FF1B0A2883137F1883170008840A03191B
:10101000FF0A080008308A000408840A82070034A6
:10102000013400340A34003464340034E8340334C6
:10103000103427340034003400340034C434FF3416
:101040007F343F348034EF34FF34BE349034E134A5
:10105000A9343E34EC3482347634BE348234AD3438
:101060002B343E340E343C34C334BD348734D13455
:1010700013343D3441347834D334BB3425346434B0
:10108000253463344334203420340034253464342C
:10109000253463342034203400342534643420343F
:1010A0002034003448343A34203400344C343A3458
:0C10B0002034003454343A34203400342E
:1010BE007E088A007F0882000A128A155F200A12B3
:1010CE008A158000840A04087D0603190034FF0A7D
:1010DE000319FE0A6328831603132508A70001309F
:1010EE000310A70DFF3E031D77280310270D2407BD
:1010FE0084000A128A150A200A128A15A8000A12FA
:10110E008A150A200A128A15A9000A128A150A20BF
:10111E000A128A15AA000A128A150A200A128A15BC
:10112E00AB002B08AF002A08AE002908AD00280836
:10113E00AC003D29FF30A5070318A60AFF30A6070D
:10114E002508A70001300310A70DFF3E031DAA2896
:10115E000310270D240784000A128A150A200A128A
:10116E008A15A8000A128A150A200A128A15A900E1
:10117E000A128A150A200A128A15AA000A128A155C
:10118E000A200A128A15AB002B0883120313DC0007
:10119E00831603132A0883120313DB00831603132B
:1011AE00290883120313DA00831603132808831207
:1011BE000313D900831603132F0883120313A800F9
:1011CE00831603132E0883120313A700831603132B
:1011DE002D0883120313A600831603132C08831203
:1011EE000313A50083160313230883120313AC0005
:1011FE0083160313220883120313AB008316031303
:10120E00210883120313AA008316031320088312E6
:10121E000313A9000A128A11BA200A128A15831220
:10122E0003132808E0002708DF002608DE00250843
:10123E00DD000A128A1578250A128A158312031305
:10124E005C0883160313AF00831203135B08831627
:10125E000313AE00831203135A0883160313AD0053
:10126E0083120313590883160313AC0025082604B2
:10127E00031D42294329A1282F08A3002E08A200EE
:10128E002D08A1002C08A000080083120313AD0046
:10129E002130A5002508AA00382A25302E0603196C
:1012AE0059295A2966292E08A5002D0884002508DB
:1012BE00831380000130A5002508AD07382AA80148
:1012CE007F292A08840083130008A5002508AE0094
:1012DE000230A5002508AA072E08A5002D088400B7
:1012EE002508831380000130A5002508AD07382A94
:1012FE000130A007FF30200784000A128A150A2049
:10130E000A128A15AE00A500A6012608003A031996
:10131E00912973292508003A03194A2A633A0319B9
:10132E006829073A03199F290D3A03199F29732932
:10133E002A08840083130008AB00840A0008AC005E
:10134E000230A5002508AA07AC1FAE29AF29B8297F
:10135E000330A5002508A804AB09AC09AB0A031994
:10136E00AC0AAE01AE0A2E08A5002507013E840088
:10137E000A128A150A200A128A15A6000A128A155E
:10138E000A200A128A15A70027082C02031DD1294C
:10139E0026082B020318D429D529D629E029013095
:1013AE00A5002508AE0705302E06031DDF29E0290E
:1013BE00BA29280803390319E529E629F1292D3020
:1013CE00A5002D0884002508831380000130A50098
:1013DE002508AD072E08A5002508A9002F2A0A30DA
:1013EE00F8000030F9002908A5002507013E840009
:1013FE000A128A150A200A128A15F0000A128A1594
:10140E000A200A128A15F1002C08F3002B08F200AC
:10141E000A168A1141250A128A157108FB007008F6
:10142E00FA000A168A1186240A128A157808303EA6
:10143E0083120313A6002608AE002E08A5002D0861
:10144E0084002508831380000130A5002508AD0710
:10145E00FF30A5002508A907290A031D372A382AB7
:10146E00F6290130A007FF30200784000A128A15E2
:10147E000A200A128A15A5002508AE002E08031DA3
:10148E00492A4A2A54292D08840083138001080012
:10149E00831603133308F3003208F2003108F1000B
:1014AE003008F0000030F7000030F6000030F50094
:1014BE000030F4000A128A1118200A128A15031835
:1014CE00692A6A2A792A213083160313D100003043
:1014DE00D2000030B3000030B2000030B100003056
:1014EE00B0009A2B831603133308F3003208F20070
:1014FE003108F1003008F0000030F7000030F6003F
:10150E000030F5000030F4000A168A1185250A1203
:10151E008A15031C932A942AA32A223083160313B6
:10152E00D1000030D2000030B3000030B2000030E5
:10153E00B1000030B0009A2BBF3083120313DC00D1
:10154E008030DB000030DA000030D9004030A800D7
:10155E000030A7000030A6000030A500B430ED002A
:10156E006D08A40083160313330883120313A3001C
:10157E0083160313320883120313A2008316031378
:10158E00310883120313A10083160313300883124C
:10159E000313A0000A168A11D3250A128A15831284
:1015AE0003132308AC002208AB002108AA00200870
:1015BE00A9000A128A11BA200A128A15831203137D
:1015CE002808E0002708DF002608DE002508DD00D9
:1015DE000A128A1578250A128A15831203135C08DB
:1015EE0083160313B300831203135B0883160313CE
:1015FE00B200831203135A0883160313B100831229
:10160E000313590883160313B000FF30B4070318F1
:10161E00B50AFF30B5073308A3003208A20031081F
:10162E00A1003008A0000B3083120313ED006D08EB
:10163E0083160313A4000830A5000030A6000A127A
:10164E008A1572200A128A15831603132308B30013
:10165E002208B2002108B1002008B000330883121E
:10166E000313DC0083160313320883120313DB000B
:10167E0083160313310883120313DA008316031340
:10168E00300883120313D9003F30A8003130A70071
:10169E007230A6001830A500831603133408F0002C
:1016AE003508F1000030F11BFF30F200F30001307D
:1016BE000A168A1146270A128A1573088312031313
:1016CE00AC007208AB007108AA007008A9000A12DB
:1016DE008A11BA200A128A15831203132808E00011
:1016EE002708DF002608DE002508DD000A128A150D
:1016FE0078250A128A15831203135C0883160313C6
:10170E00B300831203135B0883160313B200831214
:10171E0003135A0883160313B100831203135908D7
:10172E0083160313B0000800831203134608803992
:10173E00C7004708D0004608C7004707C80048083A
:10174E00D700C51FAB2BAC2BAD2B57145708031965
:10175E00B12BB22BC22B570A031DB62BB72BBF2BA7
:10176E000030C6000030C5000030C4000030C30099
:10177E00C517C601CA2B0030C6000030C5000030A8
:10178E00C4000030C30042088039C7004708D006A5
:10179E004208C7004707C8004808D800C11FD82B09
:1017AE00D92BDA2B581458080319DE2BDF2BEF2B0D
:1017BE00580A031DE32BE42BEC2B0030C200003043
:1017CE00C1000030C0000030BF00C117C201F72BAE
:1017DE000030C2000030C1000030C0000030BF0039
:1017EE004208410440043F04031DFE2BFF2B182C1E
:1017FE000030C6000030C5000030C4000030C30009
:10180E008030C5047F30C6045008C7004708C604A0
:10181E004608C2004508C1004408C0004308BF0086
:10182E00772D5708031D1C2C1D2C262C0030C200B2
:10183E000030C1000030C0000030BF00772D5708C7
:10184E00C700C8014808CA0058084702C900031C4F
:10185E00CA0349087F3ED1004A080318013E003EE4
:10186E00D2004608CF004508CE004408CD004308FC
:10187E00CC000030C6000030C5000030C40000307F
:10188E00C3000030D6000030D5000030D400003048
:10189E00D300D8019C2C58080319562C572C772CA2
:1018AE000130C7000310CC0DCD0DCE0DCF0DC70BE3
:1018BE00592C0130C7000310C30DC40DC50DC60D44
:1018CE00C70B622CD61F6C2C6D2C6E2C4314013062
:1018DE00C7000310D30DD40DD50DD60DC70B702C2C
:1018EE0042084F02031D852C41084E02031D852C14
:1018FE0040084D02031D852C3F084C02031C882C0A
:10190E00892C982C56173F08CC024008031C400F18
:10191E00CD024108031C410FCE024208031C420FA8
:10192E00CF020130C7004708D8071A305802031CEF
:10193E00A12CA22C522C4F084E044D044C0403191A
:10194E00A92CAA2CC92C5314C92C0130C700031082
:10195E00C30DC40DC50DC60DC70BAE2CD61FB82CAE
:10196E00B92CBA2C43140130C7000310D30DD40D7B
:10197E00D50DD60DC70BBC2CFF30D1070318D20ADC
:10198E00FF30D207C51FCC2CCD2CAC2CD801D61FC6
:10199E00D12CD22CEE2CFF305305C700FF3054054E
:1019AE00C800FF305505C9007F305605CA004A08E9
:1019BE004904480447040319E52CE62CE92CD80108
:1019CE00D80AEE2C431CEC2CED2CEE2CE62C5808F1
:1019DE000319F22CF32C242D0130C3070030031809
:1019EE000130C407003003180130C507003003185A
:1019FE000130C607461C042D052D242D4308C700B3
:101A0E004408C8004508C9004608CA000130CB008A
:101A1E004A0DCA0CC90CC80CC70CCB0B0F2D4A08AB
:101A2E00C6004908C5004808C4004708C300013075
:101A3E00D1070318D20A0030D2075208803AFF00AD
:101A4E0080307F02031D2D2DFF305102031C302DDF
:101A5E00312D3F2DFF3083120313D1000030D20001
:101A6E000030C6000030C5000030C4000030C30096
:101A7E00831203135208803AFF0080307F02031D49
:101A8E004A2D0130510203184D2D4E2D5B2D831220
:101A9E000313D101D2010030C6000030C500003062
:101AAE00C4000030C300D001831203135108C700D5
:101ABE004708D700571C642D652D672DC5176B2D54
:101ACE007F30C7004708C5055708C7000310470CED
:101ADE00C8004808C6005008C7004708C6040F2CA7
:101AEE000800831203135C088039E1006108E900E5
:101AFE005C08E1006107E2006208EB00DB1F882D45
:101B0E00892D8A2D6B146B0803198E2D8F2D9F2D09
:101B1E006B0A031D932D942D9C2D0030DC0000309C
:101B2E00DB000030DA000030D900DB17DC01A72D16
:101B3E000030DC000030DB000030DA000030D9006D
:101B4E0060088039E1006108EA006A086906031935
:101B5E00B12DB22DB32D69176008E1006107E200C7
:101B6E006208EA00DF1FBC2DBD2DBE2D6A146A0867
:101B7E000319C22DC32DD32D6A0A031DC72DC82DDF
:101B8E00D02D0030E0000030DF000030DE000030ED
:101B9E00DD00DF17E001DB2D0030E0000030DF005C
:101BAE000030DE000030DD006B086A020318E02D05
:101BBE00E12D252E691FE42DE52DE92D8030E10064
:101BCE006108E9066B08E1006108EC006A08E100B3
:101BDE006108EB006C08E1006108EA005908E100B9
:101BEE006108EC005D08E1006108D9006C08E100B5
:101BFE006108DD005A08E1006108EC005E08E100B2
:101C0E006108DA006C08E1006108DE005B08E100A3
:101C1E006108EC005F08E1006108DB006C08E10080
:101C2E006108DF005C08E1006108EC006008E1007B
:101C3E006108DC006C08E1006108E000EC016A0854
:101C4E00E100E2016208E4006B086102E300031C9C
:101C5E00E4036408803AFF0080307F02031D392EB2
:101C6E001A306302031C3C2E3D2E7A2E8312031370
:101C7E005C085B045A045904031D462E482E01309D
:101C8E00492E0030E1006108EC000030DC0000302D
:101C9E00DB000030DA000030D9006A08E10061088C
:101CAE00EB00822E6C1C5C2E5D2E662E6C08E10005
:101CBE000310610C0138E2006208EC00682E03107C
:101CCE00EC0C591C6B2E6C2E6D2EEC170130E100B6
:101CDE005C0DDC0CDB0CDA0CD90CE10B6F2E013039
:101CEE00E1006108EB07831203136A086B02031C01
:101CFE00812E822E592E691B852E862ED12E6B0893
:101D0E00031D8A2E8B2E942E0030DC000030DB005B
:101D1E000030DA000030D900FF2F5D08D9075E08C9
:101D2E0003110318013E03199D2EDA075F080311F4
:101D3E000318013E0319A42EDB07600803110318D4
:101D4E00013E0319AB2EDC075C1CAE2EAF2E852F89
:101D5E006C1CB22EB32EBC2E6C08E1000310610C6D
:101D6E000138E2006208EC00BE2E0310EC0C591C88
:101D7E00C12EC22EC32EEC170130E1005C0DDC0C1F
:101D8E00DB0CDA0CD90CE10BC52E0130E100610839
:101D9E00EB07852F5C08803AFF006008803A7F02CF
:101DAE00031DE32E5F085B02031DE32E5E085A023D
:101DBE00031DE32E5D0859020318E62EE72E3F2F72
:101DCE00FF30E100FF30E200FF30E300FF30E400BF
:101DDE005D08E5005E08E6005F08E7006008E800C1
:101DEE005908E5025A08031C5A0FFE2EFF2EE60272
:101DFE005B08031C5B0F042F052FE7025C08031C16
:101E0E005C0F0A2F0B2FE8026508E107660803181E
:101E1E00660F122F132FE20767080318670F182F8C
:101E2E00192FE30768080318680AE4076408DC0042
:101E3E006308DB006208DA006108D9008030E10037
:101E4E006108E906EC09EC0A6C08031D2F2F302FF0
:101E5E004D2F0130D907003003180130DA0700305A
:101E6E0003180130DB07003003180130DC074D2F5B
:101E7E005D08D9025E08031C5E0FDA025F08031CC0
:101E8E005F0FDB026008031C600FDC025C085B0462
:101E9E005A045904031D542F552F812F6C08031D0E
:101EAE00592F5A2F812F0030DC000030DB0000301C
:101EBE00DA000030D900FF2F0130E1000310D90DF8
:101ECE00DA0DDB0DDC0DE10B652FEC1F6F2F702F84
:101EDE00712F59146C1C742F752F782F0314EC0D61
:101EEE007A2F0310EC0D6B0803197E2F7F2F812F95
:101EFE000130EB02DB1F842F852F632FEA01EC1FCD
:101F0E00892F8A2F982F6C087F3903198F2F902FC6
:101F1E00932FEA01EA0A982F591C962F972F982F84
:101F2E00902F6A0803199C2F9D2FD12F0130D907AE
:101F3E00003003180130DA07003003180130DB07D8
:101F4E00003003180130DC075C1CAE2FAF2FD12FF1
:101F5E005908E1005A08E2005B08E3005C08E4005F
:101F6E000130E500640DE40CE30CE20CE10CE50B32
:101F7E00B92F6408DC006308DB006208DA00610830
:101F8E00D9006B0A0319CC2FCD2FD12F0130E100D0
:101F9E006108EB076B0A0319D52FD62FDB2F6B08C1
:101FAE00031DDA2FDB2FE92F0030DC000030DB00C1
:101FBE000030DA000030D9006B08031DE72FE82F40
:101FCE00E92FE9016B1CEC2FED2FEF2FDB17F32F11
:101FDE007F30E1006108DB056B08E1000310610C46
:101FEE00E2006208DC00E91FFD2FFE2FFF2FDC1739
:021FFE000800D9
:1025DA0064008001840A0406031900340406EE2A02
:1025EA00F000831203130C1EFB2AFC2AF62A700839
:1025FA009900080001300A168A111A240A168A114B
:10260A000830F400C930F300F30B092BF40B092B43
:10261A000E2B0800313432343334413434343534F7
:10262A003634423437343834393443342A34303443
:10263A0023344434F4002D2B7408840000080A164D
:10264A008A1150240A168A110130F3007308F4071C
:10265A007408840083170008031D342B352B212BA3
:10266A000800F200442B7208840000080A168A1136
:10267A00F5220A168A110130F1007108F207720870
:10268A00840083130008031D4B2B4C2B382B0800A6
:10269A00F3007308F1007108F2005B2B0130F100BE
:1026AA007108F2070130F1007108F0077008840020
:1026BA000A128A150A200A168A11F1007208840081
:1026CA007108831780000008031D6C2B6D2B532B98
:1026DA000800F800023078020318742B752B822B3D
:1026EA0075080F398038F7007708F90079080A1653
:1026FA008A111A240A168A118E2B75080F39C038C6
:10270A00F7007708F90079080A168A111A240A16B6
:10271A008A1176080A168A111F230A168A110800D6
:10272A00F800F401F5017008F200F3017208F600EE
:10273A007308F700781CA22BA32BA92B7608F407A1
:10274A000318F50A7708F50701300310F60DF70D9F
:10275A00FF3E031DAA2B0310F80C7808031DB62BA5
:10276A00B72B9F2B7508F1007408F0000800831638
:10277A00031388012730F400F530F300F30BC32B61
:10278A00F40BC32B02300A168A111A240A168A116C
:10279A0028300A168A111A240A168A1101300A16D2
:1027AA008A111A240A168A110C300A168A111A2456
:1027BA000A168A1106300A168A111A240A168A116A
:1027CA000800F3007308F2007208F400F02B0130DD
:1027DA00F2007208F4077408840083170008031DC6
:1027EA00F72BF82BEC2B032C0130F2007208F407BC
:1027FA000130F0070318F10A0030F107710883125B
:10280A000313FF00700884000A128A1500200A16B2
:10281A008A11F20074088400720883178000000885
:10282A00031D182C192CF92B0800F200F030720540
:10283A00F0008312031308080F3970048800081186
:10284A00881500008312031388110330F1009730B2
:10285A00F000F00B2E2CF10B2E2C332C7208F0000A
:10286A0004300310F00DFF3E031D362C83120313B0
:10287A0008080F39700488008815000083120313B2
:10288A0088110830F100C930F000F00B4A2CF10B26
:10289A004A2C4F2C0800F200F0307205F000831227
:1028AA00031308080F3970048800081588150000FA
:1028BA008312031388110330F1009730F000F00BF4
:1028CA00642CF10B642C692C7208F000043003109C
:1028DA00F00DFF3E031D6C2C8312031308080F39F9
:1028EA0070048800881500008312031388110830C9
:1028FA00F100C930F000F00B802CF10B802C852CF4
:10290A0008007808790403198B2C8C2CBB2CFD0148
:10291A00FD0A9A2C01300310F80DF90DFF3E031D34
:10292A00902C0130FC007C08FD07F91F9D2C9E2C81
:10293A008F2C79087B02031DA42C78087A02031CC9
:10294A00A72CA82CAE2C7808FA027908031CFB03E2
:10295A00FB0201300310F90CF80CFF3E031DAF2CEB
:10296A000130FD02031DBA2CBB2C9E2C7B08F900FA
:10297A007A08F80008007008F20002300310F20D1D
:10298A00FF3E031DC32C3C307205F3008312031370
:10299A001F08C33973049F000130F20000309F18EA
:1029AA000130013EDA2C0310F20DFF3E031DD82C34
:1029BA000130F30000301F180130013EE62C0310ED
:1029CA00F30DFF3E031DE42C73087204F40074082F
:1029DA009F049F18F12CF22CEE2C1E08F600831689
:1029EA0003131E08F5007608F1007508F0000800C8
:1029FA008316031307138717831203132908F30097
:102A0A002808F2002708F1002608F0000030F70035
:102A1A007A30F6001230F5000030F4000A168A11F6
:102A2A00A9260A168A117308FC007208FB007108AD
:102A3A00FA007008F9000030F3000030F2000030AC
:102A4A00F1004030F0007C08F7007B08F6007A08B5
:102A5A00F5007908F4000A168A11A9260A168A11BD
:102A6A007008FF3E831603139900203098009030B7
:102A7A008312031398000800F501F6017008710427
:102A8A000319482D492D802DF701F70A572D0130DA
:102A9A000310F00DF10DFF3E031D4D2D0130F40022
:102AAA007408F707F11F5A2D5B2D4C2D01300310C6
:102ABA00F50DF60DFF3E031D5C2D71087302031D13
:102ACA00682D70087202031C6B2D6C2D732D700813
:102ADA00F2027108031CF303F302751401300310A8
:102AEA00F10CF00CFF3E031D742D0130F702031D9B
:102AFA007F2D802D5B2D7608F1007508F000080007
:102B0A0000307005F80000307105F9008030720558
:102B1A00FA007F307305FB007B087A047904780495
:102B2A00031D982D992DA12D0030F3000030F200DD
:102B3A000030F1000030F00000307405F800003079
:102B4A007505F90080307605FA007F307705FB00BD
:102B5A007B087A0479047804031DB42DB52DBD2DA4
:102B6A000030F7000030F6000030F5000030F400C5
:102B7A0077087306031DCB2D76087206031DCB2D2D
:102B8A0075087106031DCB2D740870060319CE2D26
:102B9A00CF2DD12D0310D22D031408008312031355
:102BAA002308F3002208F2002108F1002008F000AF
:102BBA000030F7000030F6000030F5000030F40075
:102BCA000A168A1185250A168A11031CED2DEE2D87
:102BDA00FF2D831203132408840083138001840ABF
:102BEA0080010030A3000030A2000030A1000030B4
:102BFA00A0002E2E8312031323087F39FC00FD0147
:102C0A000310FC0DFD0D240884007C08831380004A
:102C1A00840A7D088000220D220D0139FC00FD0185
:102C2A00240884007C088004840A7D08800424081F
:102C3A00840082308007840F00080318000AFF000E
:102C4A00FF307F0780008403230880393F38A300C0
:102C5A00A21308000310720D730DF4007408FA0031
:102C6A007A08031D392E3A2E432E0030F300003025
:102C7A00F2000030F1000030F000A82E7008F400D5
:102C8A007108F5007208F6007308F7001F30031088
:102C9A00F70CF60CF50CF40CFF3E031D4C2E7408D1
:102CAA00F8007808F900F217FF30F005FF30F10557
:102CBA00FF30F2050030F3059630FA02FA1F662E4D
:102CCA00672E812E7A08803A973E03186D2E6E2E53
:102CDA006F2E3A2E01300310F30CF20CF10CF00CAB
:102CEA00FF3E031D702E0130F4007408FA07031D1D
:102CFA007F2E802E6F2E982E20307A02031C862E6D
:102D0A00872E932E3A2E0130F4000310F00DF10DA8
:102D1A00F20DF30DF40B8A2E0130FA027A08031D24
:102D2A00972E982E882E790803199C2E9D2EA82E50
:102D3A00F009F109F209F309F00A0319F10A031972
:102D4A00F20A0319F30A080083120313A101F31FFD
:102D5A00AF2EB02EBD2EF009F109F209F309F00ADF
:102D6A000319F10A0319F20A0319F30AA101A10AC4
:102D7A00F71FC02EC12ED02EF409F509F609F7095E
:102D8A00F40A0319F50A0319F60A0319F70A0130B6
:102D9A00F8007808A1060030A5000030A400003031
:102DAA00A3000030A20073087204710470040319AE
:102DBA00DF2EE02E2D2FA001A00AF02E0130F80000
:102DCA000310F00DF10DF20DF30DF80BE52E0130A5
:102DDA00F8007808A007F31FF32EF42EE32E013033
:102DEA00F8000310A20DA30DA40DA50DF80BF62EE5
:102DFA0073087702031D0B2F72087602031D0B2F2F
:102E0A0071087502031D0B2F70087402031C0E2F24
:102E1A000F2F1E2F7008F4027108031C710FF502A0
:102E2A007208031C720FF6027308031C730FF70271
:102E3A00221401300310F30CF20CF10CF00CFF3EDB
:102E4A00031D1F2F0130A002031D2C2F2D2FF42E3E
:102E5A0021080319312F322F3D2FA209A309A409F2
:102E6A00A509A20A0319A30A0319A40A0319A50AA0
:102E7A002508F3002408F2002308F1002208F000D4
:102E8A000800F800780803194B2F4C2F602FF31F06
:102E9A004F2F502F602F7009FA007109FB00720939
:102EAA00FC007309FD00FA0A0319FB0A0319FC0A5C
:102EBA000319FD0A682F7308FD007208FC007108E7
:102ECA00FB007008FA007308720471047004031D91
:102EDA006F2F702F792F0030F3000030F20000308E
:102EEA00F1000030F000FF2F9630F4007408F9006A
:102EFA008B2F0130F4007408F90701300310FD0C20
:102F0A00FC0CFB0CFA0CFF3E031D832FFE307D05E3
:102F1A00031D902F912F7E2FAD2F0130F4007408DE
:102F2A00F9070130FA07003003180130FB070030B7
:102F3A0003180130FC07003003180130FD07013087
:102F4A000310FD0CFC0CFB0CFA0CFF3E031DA52F15
:102F5A00FF307D05031DB22FB32F922FBF2F0130F3
:102F6A00F9020130F4000310FA0DFB0DFC0DFD0D02
:102F7A00F40BB82FFC1BC22FC32FC92F02307902C2
:102F8A000318C82FC92FB42F7918CC2FCD2FD52FBE
:102F9A00FF30FA05FF30FB057F30FC05FF30FD05E9
:102FAA000310F90C7908F400F501F601F70118305D
:102FBA000310F40DF50DF60DF70DFF3E031DDD2F81
:102FCA007408FA047508FB047608FC047708FD0403
:102FDA0078080319F12FF22FF72FF31FF52FF62F89
:102FEA00F72FFD177D08F3007C08F2007B08F1003B
:062FFA007A08F000080057
:04400E00D520FF3F7B
:00000001FF
